{
  "contractName": "Wallet",
  "abi": [
    {
      "inputs": [
        {
          "internalType": "address[]",
          "name": "_approvers",
          "type": "address[]"
        },
        {
          "internalType": "uint256",
          "name": "_quorum",
          "type": "uint256"
        }
      ],
      "stateMutability": "nonpayable",
      "type": "constructor"
    },
    {
      "inputs": [
        {
          "internalType": "address",
          "name": "",
          "type": "address"
        },
        {
          "internalType": "uint256",
          "name": "",
          "type": "uint256"
        }
      ],
      "name": "apprRecord",
      "outputs": [
        {
          "internalType": "bool",
          "name": "",
          "type": "bool"
        }
      ],
      "stateMutability": "view",
      "type": "function",
      "constant": true
    },
    {
      "inputs": [
        {
          "internalType": "uint256",
          "name": "",
          "type": "uint256"
        }
      ],
      "name": "approvers",
      "outputs": [
        {
          "internalType": "address",
          "name": "",
          "type": "address"
        }
      ],
      "stateMutability": "view",
      "type": "function",
      "constant": true
    },
    {
      "inputs": [],
      "name": "nextId",
      "outputs": [
        {
          "internalType": "uint256",
          "name": "",
          "type": "uint256"
        }
      ],
      "stateMutability": "view",
      "type": "function",
      "constant": true
    },
    {
      "inputs": [],
      "name": "quorum",
      "outputs": [
        {
          "internalType": "uint256",
          "name": "",
          "type": "uint256"
        }
      ],
      "stateMutability": "view",
      "type": "function",
      "constant": true
    },
    {
      "inputs": [
        {
          "internalType": "uint256",
          "name": "",
          "type": "uint256"
        }
      ],
      "name": "transfers",
      "outputs": [
        {
          "internalType": "uint256",
          "name": "id",
          "type": "uint256"
        },
        {
          "internalType": "uint256",
          "name": "amount",
          "type": "uint256"
        },
        {
          "internalType": "address payable",
          "name": "to",
          "type": "address"
        },
        {
          "internalType": "uint256",
          "name": "approvals",
          "type": "uint256"
        },
        {
          "internalType": "bool",
          "name": "sent",
          "type": "bool"
        }
      ],
      "stateMutability": "view",
      "type": "function",
      "constant": true
    },
    {
      "stateMutability": "payable",
      "type": "receive",
      "payable": true
    },
    {
      "inputs": [],
      "name": "getApprovers",
      "outputs": [
        {
          "internalType": "address[]",
          "name": "",
          "type": "address[]"
        }
      ],
      "stateMutability": "view",
      "type": "function",
      "constant": true
    },
    {
      "inputs": [
        {
          "internalType": "address payable",
          "name": "to",
          "type": "address"
        },
        {
          "internalType": "uint256",
          "name": "amount",
          "type": "uint256"
        }
      ],
      "name": "createTransfer",
      "outputs": [],
      "stateMutability": "nonpayable",
      "type": "function"
    },
    {
      "inputs": [],
      "name": "getTransfers",
      "outputs": [
        {
          "components": [
            {
              "internalType": "uint256",
              "name": "id",
              "type": "uint256"
            },
            {
              "internalType": "uint256",
              "name": "amount",
              "type": "uint256"
            },
            {
              "internalType": "address payable",
              "name": "to",
              "type": "address"
            },
            {
              "internalType": "uint256",
              "name": "approvals",
              "type": "uint256"
            },
            {
              "internalType": "bool",
              "name": "sent",
              "type": "bool"
            }
          ],
          "internalType": "struct Wallet.Transfer[]",
          "name": "",
          "type": "tuple[]"
        }
      ],
      "stateMutability": "view",
      "type": "function",
      "constant": true
    },
    {
      "inputs": [
        {
          "internalType": "uint256",
          "name": "id",
          "type": "uint256"
        }
      ],
      "name": "approveTransfer",
      "outputs": [],
      "stateMutability": "nonpayable",
      "type": "function"
    }
  ],
  "bytecode": "0x60806040523480156200001157600080fd5b50604051620013423803806200134283398181016040528101906200003791906200026d565b81600090805190602001906200004f929190620000e6565b508060028190555060005b8251811015620000dd5760018060008584815181106200007657fe5b602002602001015173ffffffffffffffffffffffffffffffffffffffff1673ffffffffffffffffffffffffffffffffffffffff16815260200190815260200160002060006101000a81548160ff02191690831515021790555080806001019150506200005a565b50505062000390565b82805482825590600052602060002090810192821562000162579160200282015b82811115620001615782518260006101000a81548173ffffffffffffffffffffffffffffffffffffffff021916908373ffffffffffffffffffffffffffffffffffffffff1602179055509160200191906001019062000107565b5b50905062000171919062000175565b5090565b5b80821115620001ae57600081816101000a81549073ffffffffffffffffffffffffffffffffffffffff02191690555060010162000176565b5090565b600081519050620001c3816200035c565b92915050565b600082601f830112620001db57600080fd5b8151620001f2620001ec82620002f5565b620002c7565b915081818352602084019350602081019050838560208402820111156200021857600080fd5b60005b838110156200024c5781620002318882620001b2565b8452602084019350602083019250506001810190506200021b565b5050505092915050565b600081519050620002678162000376565b92915050565b600080604083850312156200028157600080fd5b600083015167ffffffffffffffff8111156200029c57600080fd5b620002aa85828601620001c9565b9250506020620002bd8582860162000256565b9150509250929050565b6000604051905081810181811067ffffffffffffffff82111715620002eb57600080fd5b8060405250919050565b600067ffffffffffffffff8211156200030d57600080fd5b602082029050602081019050919050565b60006200032b8262000332565b9050919050565b600073ffffffffffffffffffffffffffffffffffffffff82169050919050565b6000819050919050565b62000367816200031e565b81146200037357600080fd5b50565b620003818162000352565b81146200038d57600080fd5b50565b610fa280620003a06000396000f3fe60806040526004361061008a5760003560e01c80636402c71c116100595780636402c71c146101405780636cb3e8ef1461017d5780639377d711146101a8578063cacca4a0146101e9578063d3650fb81461021257610091565b80631703a018146100965780632f65142c146100c15780633ac172dd146100ec57806361b8ce8c1461011557610091565b3661009157005b600080fd5b3480156100a257600080fd5b506100ab61024f565b6040516100b89190610ddc565b60405180910390f35b3480156100cd57600080fd5b506100d6610255565b6040516100e39190610d3f565b60405180910390f35b3480156100f857600080fd5b50610113600480360381019061010e91906109d5565b610343565b005b34801561012157600080fd5b5061012a6104e1565b6040516101379190610ddc565b60405180910390f35b34801561014c57600080fd5b5061016760048036038101906101629190610a11565b6104e7565b6040516101749190610d61565b60405180910390f35b34801561018957600080fd5b50610192610516565b60405161019f9190610d1d565b60405180910390f35b3480156101b457600080fd5b506101cf60048036038101906101ca9190610a4d565b6105a4565b6040516101e0959493929190610df7565b60405180910390f35b3480156101f557600080fd5b50610210600480360381019061020b9190610a4d565b610614565b005b34801561021e57600080fd5b5061023960048036038101906102349190610a4d565b61095a565b6040516102469190610d02565b60405180910390f35b60025481565b60606003805480602002602001604051908101604052809291908181526020016000905b8282101561033a57838290600052602060002090600502016040518060a001604052908160008201548152602001600182015481526020016002820160009054906101000a900473ffffffffffffffffffffffffffffffffffffffff1673ffffffffffffffffffffffffffffffffffffffff1673ffffffffffffffffffffffffffffffffffffffff168152602001600382015481526020016004820160009054906101000a900460ff16151515158152505081526020019060010190610279565b50505050905090565b60011515600160003373ffffffffffffffffffffffffffffffffffffffff1673ffffffffffffffffffffffffffffffffffffffff16815260200190815260200160002060009054906101000a900460ff161515146103d6576040517f08c379a00000000000000000000000000000000000000000000000000000000081526004016103cd90610d7c565b60405180910390fd5b60036040518060a0016040528060045481526020018381526020018473ffffffffffffffffffffffffffffffffffffffff16815260200160008152602001600015158152509080600181540180825580915050600190039060005260206000209060050201600090919091909150600082015181600001556020820151816001015560408201518160020160006101000a81548173ffffffffffffffffffffffffffffffffffffffff021916908373ffffffffffffffffffffffffffffffffffffffff1602179055506060820151816003015560808201518160040160006101000a81548160ff02191690831515021790555050506004600081548092919060010191905055505050565b60045481565b60056020528160005260406000206020528060005260406000206000915091509054906101000a900460ff1681565b6060600080548060200260200160405190810160405280929190818152602001828054801561059a57602002820191906000526020600020905b8160009054906101000a900473ffffffffffffffffffffffffffffffffffffffff1673ffffffffffffffffffffffffffffffffffffffff1681526020019060010190808311610550575b5050505050905090565b600381815481106105b157fe5b90600052602060002090600502016000915090508060000154908060010154908060020160009054906101000a900473ffffffffffffffffffffffffffffffffffffffff16908060030154908060040160009054906101000a900460ff16905085565b60011515600160003373ffffffffffffffffffffffffffffffffffffffff1673ffffffffffffffffffffffffffffffffffffffff16815260200190815260200160002060009054906101000a900460ff161515146106a7576040517f08c379a000000000000000000000000000000000000000000000000000000000815260040161069e90610d7c565b60405180910390fd5b60001515600382815481106106b857fe5b906000526020600020906005020160040160009054906101000a900460ff16151514610719576040517f08c379a000000000000000000000000000000000000000000000000000000000815260040161071090610d9c565b60405180910390fd5b60001515600560003373ffffffffffffffffffffffffffffffffffffffff1673ffffffffffffffffffffffffffffffffffffffff168152602001908152602001600020600083815260200190815260200160002060009054906101000a900460ff161515146107bd576040517f08c379a00000000000000000000000000000000000000000000000000000000081526004016107b490610dbc565b60405180910390fd5b6001600560003373ffffffffffffffffffffffffffffffffffffffff1673ffffffffffffffffffffffffffffffffffffffff168152602001908152602001600020600083815260200190815260200160002060006101000a81548160ff0219169083151502179055506003818154811061083357fe5b9060005260206000209060050201600301600081548092919060010191905055506002546003828154811061086457fe5b90600052602060002090600502016003015414156109575760016003828154811061088b57fe5b906000526020600020906005020160040160006101000a81548160ff021916908315150217905550600381815481106108c057fe5b906000526020600020906005020160020160009054906101000a900473ffffffffffffffffffffffffffffffffffffffff1673ffffffffffffffffffffffffffffffffffffffff166108fc6003838154811061091857fe5b9060005260206000209060050201600101549081150290604051600060405180830381858888f19350505050158015610955573d6000803e3d6000fd5b505b50565b6000818154811061096757fe5b906000526020600020016000915054906101000a900473ffffffffffffffffffffffffffffffffffffffff1681565b6000813590506109a581610f27565b92915050565b6000813590506109ba81610f3e565b92915050565b6000813590506109cf81610f55565b92915050565b600080604083850312156109e857600080fd5b60006109f6858286016109ab565b9250506020610a07858286016109c0565b9150509250929050565b60008060408385031215610a2457600080fd5b6000610a3285828601610996565b9250506020610a43858286016109c0565b9150509250929050565b600060208284031215610a5f57600080fd5b6000610a6d848285016109c0565b91505092915050565b6000610a828383610ac4565b60208301905092915050565b6000610a9a8383610c7c565b60a08301905092915050565b610aaf81610edf565b82525050565b610abe81610edf565b82525050565b610acd81610ecd565b82525050565b610adc81610ecd565b82525050565b6000610aed82610e6a565b610af78185610e9a565b9350610b0283610e4a565b8060005b83811015610b33578151610b1a8882610a76565b9750610b2583610e80565b925050600181019050610b06565b5085935050505092915050565b6000610b4b82610e75565b610b558185610eab565b9350610b6083610e5a565b8060005b83811015610b91578151610b788882610a8e565b9750610b8383610e8d565b925050600181019050610b64565b5085935050505092915050565b610ba781610ef1565b82525050565b610bb681610ef1565b82525050565b6000610bc9601e83610ebc565b91507f596f7520617265206e6f7420616c6c6f77656420746f20617070726f766500006000830152602082019050919050565b6000610c09601583610ebc565b91507f7472616e7366657220616c72656164792073656e7400000000000000000000006000830152602082019050919050565b6000610c49601483610ebc565b91507f63616e6e6f7420617070726f766520616761696e0000000000000000000000006000830152602082019050919050565b60a082016000820151610c926000850182610ce4565b506020820151610ca56020850182610ce4565b506040820151610cb86040850182610aa6565b506060820151610ccb6060850182610ce4565b506080820151610cde6080850182610b9e565b50505050565b610ced81610f1d565b82525050565b610cfc81610f1d565b82525050565b6000602082019050610d176000830184610ad3565b92915050565b60006020820190508181036000830152610d378184610ae2565b905092915050565b60006020820190508181036000830152610d598184610b40565b905092915050565b6000602082019050610d766000830184610bad565b92915050565b60006020820190508181036000830152610d9581610bbc565b9050919050565b60006020820190508181036000830152610db581610bfc565b9050919050565b60006020820190508181036000830152610dd581610c3c565b9050919050565b6000602082019050610df16000830184610cf3565b92915050565b600060a082019050610e0c6000830188610cf3565b610e196020830187610cf3565b610e266040830186610ab5565b610e336060830185610cf3565b610e406080830184610bad565b9695505050505050565b6000819050602082019050919050565b6000819050602082019050919050565b600081519050919050565b600081519050919050565b6000602082019050919050565b6000602082019050919050565b600082825260208201905092915050565b600082825260208201905092915050565b600082825260208201905092915050565b6000610ed882610efd565b9050919050565b6000610eea82610efd565b9050919050565b60008115159050919050565b600073ffffffffffffffffffffffffffffffffffffffff82169050919050565b6000819050919050565b610f3081610ecd565b8114610f3b57600080fd5b50565b610f4781610edf565b8114610f5257600080fd5b50565b610f5e81610f1d565b8114610f6957600080fd5b5056fea264697066735822122093ef238d154e6c012784b3789b2f13d75509fddcd5d08ef128931738ba7b8d7064736f6c634300060c0033",
  "immutableReferences": {},
  "source": "// SPDX-License-Identifier: UNLICENSED\"\r\n\r\npragma solidity ^0.6.0;\r\npragma experimental ABIEncoderV2;\r\n\r\ncontract Wallet {\r\n    \r\n    address[] public approvers;\r\n    mapping (address => bool) approvers_;\r\n    uint public quorum;\r\n    struct Transfer {\r\n        uint id;\r\n        uint amount;\r\n        address payable to;\r\n        uint approvals;\r\n        bool sent;\r\n    }\r\n    Transfer[] public transfers;\r\n    uint public nextId;\r\n    mapping (address => mapping(uint => bool)) public apprRecord;\r\n    \r\n    modifier onlyApprover() {\r\n        require(approvers_[msg.sender] == true, \"You are not allowed to approve\");\r\n        _;\r\n    }\r\n    \r\n    \r\n    constructor(address[] memory _approvers, uint _quorum) public {\r\n        approvers = _approvers;\r\n        quorum = _quorum;\r\n        \r\n        for(uint i = 0; i < _approvers.length; i++){\r\n            approvers_[_approvers[i]] = true;\r\n        }\r\n    }\r\n    \r\n    function getApprovers() view external returns(address[] memory) {\r\n        return approvers;\r\n    }\r\n    \r\n    function createTransfer(address payable to, uint amount) external onlyApprover {\r\n        transfers.push(Transfer(\r\n            nextId,\r\n            amount,\r\n            to,\r\n            0,\r\n            false\r\n        ));\r\n        \r\n        nextId++;\r\n    }\r\n    \r\n    function getTransfers() view external returns(Transfer[] memory){\r\n        return transfers;\r\n    }\r\n    \r\n    function approveTransfer(uint id) external onlyApprover {\r\n        require(transfers[id].sent == false, \"transfer already sent\");\r\n        require(apprRecord[msg.sender][id] == false, \"cannot approve again\"); // this line doesnt make sense\r\n        \r\n        apprRecord[msg.sender][id] = true;\r\n        transfers[id].approvals++;\r\n        \r\n        if(transfers[id].approvals == quorum){\r\n            transfers[id].sent = true;\r\n            transfers[id].to.transfer(transfers[id].amount);\r\n        }\r\n    }\r\n    \r\n    receive() payable external {}\r\n}",
  "sourcePath": "C:/Users/DELL/Documents/Projects/J-MultiSigWallet/contracts/Wallet.sol",
  "compiler": {
    "name": "solc",
    "version": "0.6.12+commit.27d51765.Emscripten.clang"
  },
  "schemaVersion": "3.3.1",
  "updatedAt": "2021-02-13T15:35:00.542Z",
  "networkType": "ethereum",
  "devdoc": {
    "kind": "dev",
    "methods": {},
    "version": 1
  },
  "userdoc": {
    "kind": "user",
    "methods": {},
    "version": 1
  }
}